:020000040800F2
:1000000060B10020DD010008E5010008E7010008FB
:10001000E9010008EB010008ED0100080000000004
:10002000000000000000000000000000EF010008D8
:10003000F101000800000000F3010008F5010008CC
:10004000F7010008F7010008F7010008F7010008B0
:10005000F7010008F7010008F7010008F7010008A0
:10006000F7010008F7010008F7010008F701000890
:10007000F7010008F7010008F7010008F701000880
:10008000F7010008F7010008F7010008F701000870
:10009000F7010008F7010008F7010008F701000860
:1000A000F7010008F7010008F7010008F701000850
:1000B000F7010008F7010008F7010008F701000840
:1000C000F7010008F7010008F7010008F701000830
:1000D000F701000875090008F7010008F70100089A
:1000E000F7010008F7010008F7010008F701000810
:1000F000F7010008F7010008F7010008F701000800
:10010000F7010008F7010008F7010008F7010008EF
:10011000F7010008F7010008F7010008F7010008DF
:10012000F7010008F7010008F7010008F7010008CF
:1001300000F002F800F042F80AA090E8000C8244B7
:100140008344AAF10107DA4501D100F037F8AFF294
:10015000090EBAE80F0013F0010F18BFFB1A43F0A5
:1001600001031847100D0000300D0000103A24BFA5
:1001700078C878C1FAD8520724BF30C830C144BF0C
:1001800004680C607047000000230024002500264E
:10019000103A28BF78C1FBD8520728BF30C148BFEA
:1001A0000B607047642900F0B980732900F07F81EB
:1001B000002070471FB51FBD10B510BD00F092F9AB
:1001C0001146FFF7F7FF00F059FD00F0B0F903B456
:1001D000FFF7F2FF03BC00F040FD00000948804734
:1001E00009480047FEE7FEE7FEE7FEE7FEE7FEE719
:1001F000FEE7FEE7FEE7FEE704480549054A064B31
:1002000070470000150900083101000860AB0020AC
:1002100060B1002060AD002060AD0020704700009C
:100220000FB4044910B503AA029800F045F910BCB8
:100230005DF814FB000000200FB41CB5074B06AAA4
:100240007B4469460090059800F007F90020694654
:1002500000F016F91CBC5DF814FB00003D02000024
:100260002DE9F0410E460446002020622046E16858
:10027000884730B3252805D0D4E901219047206A6A
:10028000401CF2E7E168204600278847050018D0A7
:10029000A5F14100192802D820354FF400673246F5
:1002A000294620462760FFF77DFF40B1012804D092
:1002B000F61D26F007060836D8E7361DD6E728468D
:1002C000DAE7206ABDE8F08170B50C460546012AE0
:1002D00005D02878800600D5EA69002302E00123D2
:1002E00005E05B1C934202D2E05C0028F9D1A869CA
:1002F000E618C01AA861286A184428622846AFF395
:10030000008004E0D5E9012114F8010B9047B442C4
:10031000F8D32846AFF3008070BD00002DE9F0410E
:100320000646002410687529314616A510D0AFF393
:100330000080002802DA404213A507E031688A07EE
:1003400001D512A502E0490704D511A5012401E059
:10035000AFF3008000210A2206F1240709E0B0FB78
:10036000F2FCB0FBF2F302FB1C003030785418466C
:10037000491C0028F3D123462A463046BDE8F04107
:1003800000F00CB8000000002D0000002B00000061
:100390002000000070477047704770472DE9F04714
:1003A0000D4699469246044600F1240801688806E5
:1003B00004D5E06921F01001216000E00120A8428D
:1003C00001DD471B00E00027A1697A1902EB090053
:1003D000081AA0612078C00602D42046AFF300803E
:1003E000002608E0D4E901211AF806009047206AA7
:1003F000401C761C20624E45F4DB2078C0060AD5EE
:100400002046AFF3008006E0D4E901213020904778
:10041000206A401C2062381EA7F10107F4DC07E0C7
:10042000D4E9012118F805009047206A401C206299
:10043000281EA5F10105F3DC2046AFF300802078EB
:10044000000602D50220BDE8F0870120FBE700008E
:1004500001694A1C02610878704700B58FB0CDE988
:1004600001310021059105497944CDE90310114678
:100470006846FFF7F5FE0FB000BD0000E5FFFFFF87
:100480000A6802F8010B0A60704710B5436913B19E
:10049000AFF3008001E0FFF717FF012010BD1278D5
:1004A00000F124010A7000224A700122EDE7116870
:1004B0004FF0FF32E9E70000074B70B50D467B4473
:1004C000FFF7CBFF0446284600F008F810B14FF0C4
:1004D000FF3070BD204670BD9F070000007B00F01C
:1004E00080007047754600F029F8AE460500694661
:1004F000534620F00700854618B020B5FFF77CFE74
:10050000BDE820404FF000064FF000074FF0000814
:100510004FF0000B21F00701AC46ACE8C009ACE895
:10052000C009ACE8C009ACE8C0098D467047044674
:10053000AFF300802046FFF74AFE000000487047F6
:1005400000AB00202DE9F0410246002500260020E6
:1005500000230024002791F803C00CF00F0591F848
:1005600003C00CF0100CBCF1000F03D091F802C0D6
:100570004CEA050591F800C0BCF1000F31D01468B9
:1005800000202BE04FF0010C0CFA00F3B1F800C092
:100590000CEA03069E4220D183004FF00F0C0CFAA8
:1005A00003F7BC4305FA03FC4CEA040491F803C0CA
:1005B000BCF1280F06D14FF0010C0CFA00FCC2F878
:1005C00014C00AE091F803C0BCF1480F05D14FF008
:1005D000010C0CFA00FCC2F810C0401C0828D1D352
:1005E0001460B1F800C0BCF1FF0F34DD5468002086
:1005F0002EE000F1080C4FF0010808FA0CF3B1F8F6
:1006000000C00CEA03069E4221D183004FF00F0C7C
:100610000CFA03F7BC4305FA03FC4CEA040491F816
:1006200003C0BCF1280F05D100F1080C08FA0CF842
:10063000C2F8148091F803C0BCF1480F07D100F153
:10064000080C4FF0010808FA0CF8C2F81080401CA2
:100650000828CED35460BDE8F081016170470000E6
:1006600008B50121082000F05DF80121402000F0CC
:1006700059F82020ADF8000010208DF80300032069
:100680008DF8020069460948FFF75CFF2020ADF8AD
:10069000000069460648FFF755FF20210348FFF791
:1006A000DCFF20210248FFF7D8FF08BD000C014005
:1006B0000018014070B5002100230F22C47804B354
:1006C000154C246804F4E064C4F5E064210AC1F127
:1006D0000403CA40447804FA03F1847814402143A7
:1006E00009010E4C0678A155047804F01F05012479
:1006F000AC4005786D11AD0005F1E025C5F800416D
:1007000009E0047804F01F050124AC40044D06788C
:10071000761145F8264070BD0CED00E000E400E0E5
:1007200080E100E029B1064A92690243044B9A61D4
:1007300004E0034A92698243014B9A6170470000CA
:100740000010024030B500210022002400232D4D6E
:100750006D6805F00C0121B1042905D0082923D1C9
:1007600005E0294D056022E0274D05601FE0254D7D
:100770006D6805F47012234D6D6805F48034022510
:1007800005EB92421CB9214D554305600BE01D4D10
:100790006D6805F400351DB11C4D5543056002E040
:1007A000194D5543056002E0174D056000BF00BFBD
:1007B000144D6D6805F0F0010909154D6B5C056875
:1007C000DD4045600F4D6D6805F4E061090A104D8C
:1007D0006B5C4568DD4085600A4D6D6805F46051CD
:1007E000C90A0B4D6B5C4568DD40C560054D6D6801
:1007F00005F44041890B074D6B5CC568B5FBF3F50B
:10080000056130BD0010024000127A0000093D0071
:10081000050000201500002010B500F001F810BD03
:100820000CB50020019000903348006840F48030FF
:100830003149086000BF3048006800F40030009083
:100840000198401C0190009818B90198B0F5A06F6C
:10085000F1D12948006800F4003010B10120009067
:1008600001E0002000900098012843D1234800684F
:1008700040F01000214908600846006820F003009D
:1008800008600846006840F0020008601A484068A6
:10089000194948600846406848600846406840F486
:1008A000806048600846406820F47C104860084634
:1008B000406840F4E81048600846006840F08070E6
:1008C000086000BF0C48006800F000700028F9D0F4
:1008D0000948406820F0030007494860084640681E
:1008E00040F00200486000BF0348406800F00C0080
:1008F0000828F9D10CBD0000001002400020024081
:100900004FF0E020006920F004004FF0E021086182
:100910007047000010B51348006840F0010011490D
:10092000086008464068104908400E49486008467B
:1009300000680E4908400B4908600846006820F42A
:10094000802008600846406820F4FE0048604FF4AC
:100950001F008860FFF760FF4FF0006004490860E7
:1009600010BD0000001002400000FFF8FFFFF6FE7F
:1009700008ED00E010B52021144800F0A1F801288E
:100980000BD1124800F064F91149124A12788854C8
:1009900010480078401C0F49087040F224410B4871
:1009A00000F09BF8012810D1084800880748001D76
:1009B000008800210648074A12788154014606A0A3
:1009C000FFF72EFC00200349087010BD00380140DD
:1009D0003800002004000020C4E3B7A2CBCDB5C48A
:1009E000CAFDBEDDCAC7A3BA25730D0A0000000008
:1009F00010B586B0044601210420FFF793FE0121C3
:100A00008803FFF78FFE4FF40070ADF81400182034
:100A10008DF8170003208DF8160005A92048FFF770
:100A200091FD4FF48060ADF8140004208DF817009C
:100A300003208DF8160005A91948FFF783FD0194DE
:100A40000020ADF80800ADF80A00ADF80C00ADF8D4
:100A500010000C20ADF80E0001A9124800F08CF82F
:100A6000012240F225510F4800F061F8012240F2C6
:100A700024410C4800F05BF825208DF8000003208D
:100A80008DF801008DF8020001208DF80300684602
:100A9000FFF710FE0121034800F006F806B010BD74
:100AA000000801400038014021B1828942F400521F
:100AB000828104E082894DF6FF731A40828170477B
:100AC00002460020B1F5007F00D100BF13880B4023
:100AD0000BB1012000E00020704770B502460024F1
:100AE00000230025002040F66A16B14200D100BF65
:100AF000C1F3421501F01F03012606FA03F3012D8D
:100B000002D19689334006E0022D02D1168A334085
:100B100001E0968A33400C12012606FA04F4168886
:100B2000344013B10CB1012000E0002070BDF0B5DD
:100B30000346002400260025002040F66A17B9422B
:100B400000D100BF1846C1F3421401F01F0601276F
:100B500007FA06F5012C01D10C3004E0022C01D17A
:100B6000103000E014301AB107682F43076002E02C
:100B70000768AF430760F0BD2DE9F04786B0054632
:100B80000E460024A24600BFA1460027B08900B14E
:100B900000BF2F462C8A4CF6FF700440F0880443B7
:100BA0002C82AC894EF6F3100440B088318908439A
:100BB000718908430443AC81AC8A4FF6FF4004407E
:100BC000B0890443AC8201A8FFF7BCFD1F488742EF
:100BD00002D1DDF810A001E0DDF80CA0A88900F436
:100BE000004040B10AEBCA0000EB0A10316849002E
:100BF000B0FBF1F807E00AEBCA0000EB0A1031681D
:100C00008900B0FBF1F86420B8FBF0F00401200982
:100C1000642101FB1089A88900F4004040B1322012
:100C200000EBC900B0FBF1F000F00700044308E05E
:100C3000322000EB09106421B0FBF1F000F00F004E
:100C400004432C8106B0BDE8F08700000038014065
:100C500001468888C0F308007047014600BF70470E
:100C600000BF054A128802F04002002AF9D0C2B241
:100C7000014B1B1D1A80704700380140FFF740FEF2
:100C80004FF4E130FFF7B4FEFFF7EAFC002000F07C
:100C900031F840F6B831002000F0C2F8044609A14E
:100CA0002046FFF7C9FA21460BA0FFF7B9FA00204A
:100CB00000F096F80546294609A0FFF7B1FA00BFF3
:100CC000FEE70000C4E3BAC3D1BDA3ACBAC3BAC344
:100CD000BAC3B0A10000000025730D0A0000000097
:100CE000C4DAB4E6C0FBD3C3C2CA3A256425250DD5
:100CF0000A00000010B504460C4951F824104A00BF
:100D00000B4951F82400002100F09EF8094951F8E0
:100D100024200749083951F82400002100F094F8F4
:100D2000012103480830015510BD00005C0E000889
:100D30002C0000206C0E00082DE9F04704460F46F9
:100D40000025A9462348005D20B9224818380168CB
:100D5000204688471FB94FF0FF30BDE8F0871E4896
:100D600050F82400B7FBF0F61B4850F82400B7FBFE
:100D7000F0F100FB117000B1761C184850F8240007
:100D8000451E22E01348083850F8240030F81500BA
:100D900010B909F1010901E04FF00009B14513D183
:100DA0004FF0000809E00B48083850F8240005EB24
:100DB000080220F8126008F10108B045F3D3064894
:100DC00050F824006843C8E76D1E002DDADA4FF0B2
:100DD000FF30C2E734000020640E00085C0E0008FB
:100DE00010B501460023002207E00B4850F821000F
:100DF00030F8120000B15B1C521C084850F821006A
:100E00009042F2D864205843044C54F82140B0FB7F
:100E1000F4F0C0B210BD00002C0000205C0E0008F1
:100E200070B504460E4631462046FFF785FF05465D
:100E3000681C08B9002070BD024850F824002844FE
:100E4000F9E700002400002030B5034601E003F874
:100E5000011B1400A2F10102F9D130BD0005000010
:100E600001000000200000002000000000A00000A1
:100E700020000000940E0008000000203800000050
:100E80006C010008CC0E00083800002028B10000DA
:100E900088010008000000000000000000010203BB
:100EA0000401020304060708090204060800000002
:100EB000F50C0008E10D00080001002000000068AA
:0C0EC00000A100202000006800000000DD
:0400000508000131BD
:00000001FF
