:020000040800F2
:10000000A0B00020DD010008C90600086D06000848
:10001000C506000849050008950A00080000000010
:10002000000000000000000000000000C107000800
:100030004D05000800000000CB060008AD080008D0
:10004000F7010008F7010008F7010008F7010008B0
:10005000F7010008F7010008F7010008F7010008A0
:10006000F7010008F7010008F7010008F701000890
:10007000F7010008F7010008F7010008F701000880
:10008000F7010008F7010008F7010008F701000870
:10009000F7010008F7010008F7010008F701000860
:1000A000F7010008F7010008F7010008F701000850
:1000B000F7010008F7010008F7010008F701000840
:1000C000F7010008F7010008F7010008F701000830
:1000D000F7010008F7010008F7010008F701000820
:1000E000F7010008F7010008F7010008F701000810
:1000F000F7010008F7010008F7010008F701000800
:10010000F7010008F7010008F7010008F7010008EF
:10011000F7010008F7010008F7010008F7010008DF
:10012000F7010008F7010008F7010008F7010008CF
:1001300000F002F800F042F80AA090E8000C8244B7
:100140008344AAF10107DA4501D100F037F8AFF294
:10015000090EBAE80F0013F0010F18BFFB1A43F0A5
:1001600001031847EC0D00000C0E0000103A24BFEC
:1001700078C878C1FAD8520724BF30C830C144BF0C
:1001800004680C607047000000230024002500264E
:10019000103A28BF78C1FBD8520728BF30C148BFEA
:1001A0000B607047642900F0B980732900F07F81EB
:1001B000002070471FB51FBD10B510BD00F092F9AB
:1001C0001146FFF7F7FF00F0B7FC00F0B0F903B4F9
:1001D000FFF7F2FF03BC00F05FFC00000948804716
:1001E00009480047FEE7FEE7FEE7FEE7FEE7FEE719
:1001F000FEE7FEE7FEE7FEE704480549054A064B31
:1002000070470000C508000831010008A0AA0020BE
:10021000A0B00020A0AC0020A0AC002070470000DF
:100220000FB4044910B503AA029800F045F910BCB8
:100230005DF814FB000000200FB41CB5074B06AAA4
:100240007B4469460090059800F007F90020694654
:1002500000F016F91CBC5DF814FB00003D02000024
:100260002DE9F0410E460446002020622046E16858
:10027000884730B3252805D0D4E901219047206A6A
:10028000401CF2E7E168204600278847050018D0A7
:10029000A5F14100192802D820354FF400673246F5
:1002A000294620462760FFF77DFF40B1012804D092
:1002B000F61D26F007060836D8E7361DD6E728468D
:1002C000DAE7206ABDE8F08170B50C460546012AE0
:1002D00005D02878800600D5EA69002302E00123D2
:1002E00005E05B1C934202D2E05C0028F9D1A869CA
:1002F000E618C01AA861286A184428622846AFF395
:10030000008004E0D5E9012114F8010B9047B442C4
:10031000F8D32846AFF3008070BD00002DE9F0410E
:100320000646002410687529314616A510D0AFF393
:100330000080002802DA404213A507E031688A07EE
:1003400001D512A502E0490704D511A5012401E059
:10035000AFF3008000210A2206F1240709E0B0FB78
:10036000F2FCB0FBF2F302FB1C003030785418466C
:10037000491C0028F3D123462A463046BDE8F04107
:1003800000F00CB8000000002D0000002B00000061
:100390002000000070477047704770472DE9F04714
:1003A0000D4699469246044600F1240801688806E5
:1003B00004D5E06921F01001216000E00120A8428D
:1003C00001DD471B00E00027A1697A1902EB090053
:1003D000081AA0612078C00602D42046AFF300803E
:1003E000002608E0D4E901211AF806009047206AA7
:1003F000401C761C20624E45F4DB2078C0060AD5EE
:100400002046AFF3008006E0D4E901213020904778
:10041000206A401C2062381EA7F10107F4DC07E0C7
:10042000D4E9012118F805009047206A401C206299
:10043000281EA5F10105F3DC2046AFF300802078EB
:10044000000602D50220BDE8F0870120FBE700008E
:1004500001694A1C02610878704700B58FB0CDE988
:1004600001310021059105497944CDE90310114678
:100470006846FFF7F5FE0FB000BD0000E5FFFFFF87
:100480000A6802F8010B0A60704710B5436913B19E
:10049000AFF3008001E0FFF717FF012010BD1278D5
:1004A00000F124010A7000224A700122EDE7116870
:1004B0004FF0FF32E9E70000074B70B50D467B4473
:1004C000FFF7CBFF0446284600F008F810B14FF0C4
:1004D000FF3070BD204670BD5B060000007B00F061
:1004E00080007047754600F02BF8AE46050069465F
:1004F000534620F00700854618B020B5FFF77CFE74
:10050000BDE820404FF000064FF000074FF0000814
:100510004FF0000B21F00701AC46ACE8C009ACE895
:10052000C009ACE8C009ACE8C0098D46704710B5F9
:100530000446AFF300802046BDE81040FFF747BEF9
:100540000048704740AA002000BFFEE770472DE931
:10055000F041024600250026002000230024002749
:1005600091F803C00CF00F0591F803C00CF0100CCB
:10057000BCF1000F03D091F802C04CEA050591F8D8
:1005800000C0BCF1000F31D0146800202BE04FF008
:10059000010C0CFA00F3B1F800C00CEA03069E420D
:1005A00020D183004FF00F0C0CFA03F7BC4305FA7F
:1005B00003FC4CEA040491F803C0BCF1280F06D1F7
:1005C0004FF0010C0CFA00FCC2F814C00AE091F8DC
:1005D00003C0BCF1480F05D14FF0010C0CFA00FC30
:1005E000C2F810C0401C0828D1D31460B1F800C074
:1005F000BCF1FF0F34DD546800202EE000F1080C40
:100600004FF0010808FA0CF3B1F800C00CEA030639
:100610009E4221D183004FF00F0C0CFA03F7BC432C
:1006200005FA03FC4CEA040491F803C0BCF1280F5E
:1006300005D100F1080C08FA0CF8C2F8148091F802
:1006400003C0BCF1480F07D100F1080C4FF00108BE
:1006500008FA0CF8C2F81080401C0828CED3546069
:10066000BDE8F081416170470161704700BFFEE75E
:1006700008B50121082000F029F80121402000F0F0
:1006800025F82020ADF8000010208DF8030003208D
:100690008DF8020069460948FFF759FF2020ADF8A0
:1006A000000069460648FFF752FF20210348FFF784
:1006B000DBFF20210248FFF7D7FF08BD000C0140F7
:1006C0000018014000BFFEE77047704729B1064A95
:1006D00092690243044B9A6104E0034A926982439F
:1006E000014B9A61704700000010024030B50021B4
:1006F0000022002400232D4D6D6805F00C0121B16E
:10070000042905D0082923D105E0294D056022E000
:10071000274D05601FE0254D6D6805F47012234DCF
:100720006D6805F48034022505EB92421CB9214D19
:10073000554305600BE01D4D6D6805F400351DB196
:100740001C4D5543056002E0194D5543056002E01C
:10075000174D056000BF00BF144D6D6805F0F00136
:100760000909154D6B5C0568DD4045600F4D6D68EE
:1007700005F4E061090A104D6B5C4568DD40856059
:100780000A4D6D6805F46051C90A0B4D6B5C4568F4
:10079000DD40C560054D6D6805F44041890B074D8E
:1007A0006B5CC568B5FBF3F5056130BD0010024018
:1007B00000127A0000093D0004000020140000200F
:1007C000704710B500F002F810BD00000CB5002015
:1007D000019000903348006840F48030314908604F
:1007E00000BF3048006800F4003000900198401CC1
:1007F0000190009818B90198B0F5A06FF1D129487F
:10080000006800F4003010B10120009001E00020E9
:1008100000900098012843D12348006840F0100060
:10082000214908600846006820F003000860084677
:10083000006840F0020008601A48406819494860A2
:100840000846406848600846406840F48060486058
:100850000846406820F47C1048600846406840F430
:10086000E81048600846006840F08070086000BFEB
:100870000C48006800F000700028F9D00948406872
:1008800020F00300074948600846406840F0020035
:10089000486000BF0348406800F00C000828F9D108
:1008A0000CBD0000001002400020024070470020F4
:1008B0004FF0E02108610846006920F0040008615B
:1008C0007047000010B51348006840F0010011495E
:1008D000086008464068104908400E4948600846CC
:1008E00000680E4908400B4908600846006820F47B
:1008F000802008600846406820F4FE0048604FF4FD
:100900001F008860FFF75DFF4FF00060044908603A
:1009100010BD0000001002400000FFF8FFFFF6FECF
:1009200008ED00E010B586B00446012144F2040051
:10093000FFF7CCFE4FF40070ADF8140018208DF8CE
:10094000170003208DF8160005A91448FFF7FFFDD6
:100950004FF48060ADF8140004208DF817000320D8
:100960008DF8160005A90D48FFF7F1FD0194002050
:10097000ADF80800ADF80A00ADF80C00ADF81000B5
:100980000C20ADF80E0001A9054800F017F8012170
:10099000034800F007F806B010BD00000008014051
:1009A0000038014021B1828942F40052828104E082
:1009B00082894DF6FF731A40828170472DE9F04716
:1009C00086B005460E460024A24600BFA146002779
:1009D000B08900B100BF2F462C8A4CF6FF7004404E
:1009E000F08804432C82AC894EF6F3100440B088A2
:1009F00031890843718908430443AC81AC8A4FF6BE
:100A0000FF400440B0890443AC8201A8FFF76EFEAA
:100A10001F48874202D1DDF810A001E0DDF80CA0EC
:100A2000A88900F4004040B10AEBCA0000EB0A10AC
:100A300031684900B0FBF1F807E00AEBCA0000EBAF
:100A40000A1031688900B0FBF1F86420B8FBF0F0BF
:100A500004012009642101FB1089A88900F40040E9
:100A600040B1322000EBC900B0FBF1F000F007000C
:100A7000044308E0322000EB09106421B0FBF1F0E0
:100A800000F00F0004432C8106B0BDE8F0870000A1
:100A90000038014000BFFEE700BF7047FF214FF064
:100AA000E022916142F228314143516111460969C6
:100AB00041F00101116100BF4FF0E021096901F42B
:100AC00080310029F8D04FF0E021096921F00101BF
:100AD0004FF0E0221161704730B503460025B3F5B1
:100AE000E96F03DC1846FFF7D9FF15E004E0A3F532
:100AF000E96083B2681C85B2B3F5E96FF7DA0024C8
:100B000005E04FF4E960FFF7C9FF601C84B2AC4216
:100B1000F7DB1846FFF7C2FF30BD000000BF054AF3
:100B2000128802F04002002AF9D0C2B2014B1B1D0C
:100B30001A80704700380140FFF7B9FE4FF4E130EA
:100B4000FFF7F0FEFFF794FD002000F009F9002008
:100B500000F072F9054629463DA0FFF761FB40F61B
:100B6000B831002000F0B2F904463EA12046FFF75C
:100B700063FB41A0FFF754FB214644A0FFF750FB65
:100B8000214644A0FFF74CFB002000F055F9054634
:100B900029462FA0FFF744FB4FF47A62214600203C
:100BA00000F0A8F9044640A0FFF73AFB214637A021
:100BB000FFF736FB214637A0FFF732FB002000F09D
:100BC0003BF90546294622A0FFF72AFB21460020D3
:100BD00000F06AF939A0FFF723FB002000F02CF9A0
:100BE000054629461AA0FFF71BFB40F6B831002046
:100BF00000F06CF9044635A0FFF712FB217838A00D
:100C0000FFF70EFB214623A0FFF70AFB002000F0B0
:100C100013F9054629460EA0FFF702FB17E0202135
:100C20003248FFF71FFD20213148FFF71BFD4FF42D
:100C30009670FFF751FF20212C48FFF715FD20216A
:100C40002B48FFF711FD4FF49670FFF745FFE6E7DD
:100C5000C4DAB4E6C0FBD3C3C2CA3A256425250D65
:100C60000A000000313233C4E3BAC3D1BDA3ACBA29
:100C7000C3BAC3BAC3B0A1000D0ACAD7B4CEC9EA79
:100C8000C7EBBFD5BCE40D0A0000000025730D0AB8
:100C90000000000070BFD5BCE4B5C4CAD7B5D8D633
:100CA000B725640D0A0000000D0AD6D8D0C2C9EAE3
:100CB000C7EBBFD5BCE40D0A000000000D0ACACD89
:100CC000B7C5BFD5BCE40D0A000000000D0AD4D999
:100CD000B4CEC9EAC7EBBFD5BCE40D0A00000000E2
:100CE000705B305D203D2025640D0A00000C014042
:100CF000001801402DE9F04104460E461548005DFC
:100D000038B9144818380168204688470120BDE8E2
:100D1000F081114850F82400B04219D90F4850F81A
:100D20002400B6FBF0F70B48083850F8240030F8E0
:100D30001780002508E000210648083850F82400F4
:100D40007A1920F812106D1C4545F4DB0020DEE70F
:100D50000220DCE730000020480F0008400F0008A8
:100D600030B504460225084951F8241001FB05F26C
:100D7000064951F82400002100F08BF801210348B6
:100D80000830015530BD0000380F00082800002051
:100D90002DE9F04704460F460025A9462348005D8B
:100DA00020B9224818380168204688471FB94FF0FB
:100DB000FF30BDE8F0871E4850F82400B7FBF0F67E
:100DC0001B4850F82400B7FBF0F100FB117000B194
:100DD000761C184850F82400451E22E013480838B5
:100DE00050F8240030F8150010B909F1010901E0AC
:100DF0004FF00009B14513D14FF0000809E00B484E
:100E0000083850F8240005EB080220F8126008F1B9
:100E10000108B045F3D3064850F824006843C8E7FA
:100E20006D1E002DDADA4FF0FF30C2E730000020EF
:100E3000400F0008380F000810B5014600230022BB
:100E400007E00B4850F8210030F8120000B15B1C9D
:100E5000521C084850F821009042F2D864205843B0
:100E6000044C54F82140B0FBF4F080B210BD0000F7
:100E700028000020380F000870B503460C4603E038
:100E800014F8015B03F8015B151EA2F10102F7D112
:100E900070BD30B5034601E003F8011B141EA2F13A
:100EA0000102F9D130BD000070B505460C4604B909
:100EB00070BD054850F82500261A31462846FFF730
:100EC00019FF00BFF4E700002000002070B50446C1
:100ED0000E4631462046FFF75BFF0546681C08B901
:100EE000002070BD024850F824002844F9E70000B3
:100EF000200000202DE9F04104460F4616463146F9
:100F00002046FFF745FF0546681C10B90020BDE8E4
:100F1000F081084951F82410481932463946FFF744
:100F2000ABFF39462046FFF7BFFF024850F82400C8
:100F30002844ECE72000002000050000010000002C
:100F4000200000002000000000A0000020000000A1
:100F5000700F000800000020340000006C01000841
:100F6000A40F0008340000206CB0000088010008C5
:100F7000000000000000000001020304010203045D
:100F80000607080902040608610D0008390E00086A
:100F9000400000200000006840A000202000006801
:040FA000000000004D
:0400000508000131BD
:00000001FF
